:020000040802F0
:100000007806002079020208010D0208F90C0208A6
:10001000FD0C020825040208D90D020800000000AA
:10002000000000000000000000000000090D0208B0
:100030002904020800000000050D02080D0D020849
:100040009302020893020208930202089302020834
:100050009302020893020208930202089302020824
:100060009302020893020208930202089302020814
:100070009302020893020208930202089302020804
:1000800093020208930202089302020893020208F4
:1000900093020208930202089302020893020208E4
:1000A00093020208930202089302020893020208D4
:1000B00093020208930202089302020893020208C4
:1000C00093020208930202089302020893020208B4
:1000D00093020208930202089302020893020208A4
:1000E0009302020893020208930202089302020894
:1000F0009302020893020208930202089302020884
:100100009302020893020208930202089302020873
:100110009302020893020208930202089302020863
:100120009302020893020208930202089302020853
:100130009302020893020208930202089302020843
:100140009302020893020208930202089302020833
:100150009302020893020208930202089302020823
:100160009302020893020208930202089302020813
:100170009302020893020208000000000000000041
:1001800093020208930202089302020893020208F3
:100190009302020893020208000000009302020882
:1001A0009302020893020208000000000000000011
:1001B0009302020800000000000000009302020801
:1001C00093020208930202089302020893020208B3
:1001D000930202089302020800F002F800F03CF8D3
:1001E0000AA090E8000C82448344AAF10107DA4592
:1001F00001D100F031F8AFF2090EBAE80F0013F0A8
:10020000010F18BFFB1A43F001031847840C0000CC
:10021000A40C0000103A24BF78C878C1FAD852075D
:1002200024BF30C830C144BF04680C607047000070
:100230000023002400250026103A28BF78C1FBD8EF
:10024000520728BF30C148BF0B6070471FB500F090
:100250000AFE1FBD10B510BD00F0A9F81146FFF74A
:10026000F5FF00F0BBFD00F0C7F803B4FFF7F2FFA5
:1002700003BC00F0CFF80000094880470948004758
:10028000FEE7FEE7FEE7FEE7FEE7FEE7FEE7FEE746
:10029000FEE7FEE704480549054A064B70470000A3
:1002A000BD0D0208D9010208780000207806002060
:1002B000780200207802002053EA020C00F06980E6
:1002C0002DE9F04B4FF00006002B1FBFB3FA83F56A
:1002D00003FA05F424FA05F65E4012BF1643B2FA9B
:1002E00082F502FA05F4C5F120051EBF22FA05FCCD
:1002F00044EA0C04203556EA044C4FEA144418BF73
:10030000641C4FF000084FF00009904271EB030CA1
:1003100039D3002919BFB1FA81F701FA07F6B0FA0B
:1003200080F700FA07F6C7F120071EBF20FA07FC86
:1003300046EA0C062037B6FBF4FCA7EB0507103F96
:1003400007F01F0BCBF120062CFA06F60CFA0BFB7C
:1003500044BFB3460026202FA4BF5E464FF0000BDB
:100360005BEA060C08BF4FF0010B19EB0B0948EBD9
:100370000608ABFB027C06FB02CC0BFB03CCC01BCC
:1003800071EB0C01C1E70B46024641464846BDE809
:10039000F08B13B5084318BF4FF0FF300146AFF3A1
:1003A0000080BDE81C407047704770477047754635
:1003B00000F02CF8AE4605006946534620F00700D1
:1003C000854618B020B5FFF765FFBDE820404FF027
:1003D00000064FF000074FF000084FF0000BAC464E
:1003E000ACE8C009ACE8C009ACE8C009ACE8C00999
:1003F00021F007018D46704710B50446AFF3008029
:100400002046BDE81040FFF730BF000000487047AD
:100410001000002001491820ABBEFEE726000200B4
:1004200070470000FEE7000070470000B0B50446CA
:1004300000F0F4F8054640F20000C2F20000007837
:10044000611C18BF044400BF00F0E8F8401BA04244
:10045000FAD3B0BD2DE9F04F82B000F13E4241F633
:10046000000502F1FF77C4F2020507224FEAB72622
:10047000A84208BF0622062E38BF4FEAB7224FF027
:10048000010A002400274FF00008009208E000BF96
:10049000023708F10108202F04F1040400F0B480B1
:1004A0000E680AFA08F916EA090FF1D0D1F804A08B
:1004B0000AF0030BABF10106012E17D80322866860
:1004C00002FA07FECA6826EA0E06BA403243826084
:1004D0004268CAF3001522EA090205FA08F54FEA54
:1004E000480C6FEA0E062A4342600BE00322BA4032
:1004F000D643BBF1030FBC4604D1BC464FF0030BFF
:1005000022E000BFC2688D68324005FA0CF52A432C
:10051000BBF1020FC26017D16FF0030202EA58026A
:10052000024404F01C030F25D2F820E005FA03FA78
:100530000D692EEA0A0E05FA03F343EA0E0313626D
:10054000D1F804A00AF0030B02680BFA0CF3324056
:100550001A431AF4403F4FF0010A026098D000227B
:1005600043F644030192C4F202031A6843F6004EB4
:1005700042F480421A601A68C4F2010E02F480420A
:100580000192019A28F003024FF6084C7244CFF60C
:10059000FF7C52F80C3004F00C060F25B540AB433D
:1005A000009D05FA06F6334342F80C30DEF80820C9
:1005B0004B6842EA090643F60C4CDD0258BF22EABA
:1005C0000906CEF80860C4F2010CDCF800209D0298
:1005D00042EA090658BF22EA0906CCF80060DEF8B4
:1005E00004209D0342EA090658BF22EA0906CEF814
:1005F0000460DEF80020DB0342EA090658BF22EA65
:100600000906CEF8006043E702B0BDE8F08F0000B5
:10061000002A08BF090481617047000040F27000A1
:10062000C2F200000068704740F2000040F2700122
:10063000C2F20000C2F2000100780A6810440860AB
:100640007047000080B543F60040C4F20200016824
:1006500041F400710160016841F48061016001684A
:1006600041F480710160032000F074F80F2000F065
:1006700005F800F027F8002080BD000070B540F2BA
:100680000006C2F2000640F208013278C2F2000110
:100690004FF47A730968B3FBF2F20446B1FBF2F14E
:1006A000084600F013FB0F2C4FF0010508D838B9AD
:1006B0004FF0FF3021460022002500F01FF8746043
:1006C000284670BD82B0002043F640010190C4F27C
:1006D00002014A6842F480424A604A6802F4804259
:1006E0000192019A0090086840F080500860086804
:1006F00000F080500090009802B0704710B54EF6A0
:100700000C5CCEF2000CDCF80030C3F3022E8EF04D
:100710000704042C28BF0424BEF103034FF0FF3E5E
:100720000EFA04F438BF0023A14399400EFA03F3F4
:100730009A43114300F00F02043A624409010C325B
:1007400000F16043B0F1FF3FC8BF03F56442117090
:1007500010BD00004EF60C51CEF200010A684FF6B3
:10076000FF031A4060F30A2242F0806040F0FD70FF
:10077000086070472DE9F041002800F08B8043F6B7
:100780000808C4F202080446D8F8F8030D4600F041
:100790000700884207D288F8F853D8F8F80300F029
:1007A0000700A84276D12068810717D5410705D5F3
:1007B000D8F8001041F4E051C8F80010010705D541
:1007C000D8F8001041F46041C8F80010D8F80010C3
:1007D000A26821F0F0011143C8F80010C0073FD112
:1007E000D8F8F80300F00700A84207D988F8F853B2
:1007F000D8F8F80300F00700A8424BD12068410761
:1008000007D5D8F80010E26821F4E0511143C8F888
:100810000010000708D5D8F80000216920F46040D6
:1008200040EAC100C8F8000000F054F8D8F8001001
:1008300040F68062C1F30311C0F60202515C40F23F
:10084000080220FA01F140F20400C2F20000006840
:10085000C2F200021160FFF711FF0020BDE8F08135
:100860006068811E022907D258F8081C89015CBF04
:100870000120BDE8F08111E0012807D158F8081CDB
:1008800089035CBF0120BDE8F08107E058F8081C2F
:10089000890703D40120BDE8F08100BFD8F800101B
:1008A00021F003010843C8F80000FFF7B7FE064631
:1008B00041F28837D8F80000616800F00C00B0EB16
:1008C000810F8DD0FFF7AAFE801BB842F2D903201A
:1008D000BDE8F08110B543F60404C4F20204606878
:1008E00000F00C0142F200400829C0F2F40007D0E9
:1008F000042918BF10BD41F20020C0F27A0010BDDB
:10090000216801F03F02216823684902C3F388117E
:1009100006D4A1FB00010023FFF7CEFC07E000BFD7
:1009200041F20020C0F27A004843B0FBF2F02168A7
:100930000222C1F3014102EB4101B0FBF1F010BD15
:100940002DE9F04182B0002870D00446007843F6CB
:100950000006C007C4F202060BD0B06800F00C001D
:10096000042840F0A7803068800302D56068002822
:100970005CD0207880071AD5B06810F00C0F09D031
:10098000B06800F00C00082840F0AE8070684002AB
:1009900000F1AA803068800702D5E068012845D1BF
:1009A0003068216920F0F80040EAC100306020780A
:1009B00000073FD42078400754D4A5698DB3B068B0
:1009C00000F00C00082840F0C380012D2ED0706884
:1009D000E16900F480028A4228D1216A00F03F02D6
:1009E0008A4223D147F6C071626A0140B1EB821F8F
:1009F0001CD1A26A0023CFF6FF7303EBC23200F4CE
:100A000040316FF30F02914210D1E16A00F0706241
:100A1000B2EB016F0AD1216B00F0E040B0EB017F37
:100A200004D1002002B0BDE8F08100BF012002B077
:100A3000BDE8F0816069002840F20000C4F2472060
:100A400076D00121C0F8801EFFF7E8FD054600BF03
:100A5000706F8007AED4FFF7E1FD401B0228F7D985
:100A6000DDE000BF306C10F080580AD1002001900A
:100A7000306C40F080503064306C00F08050019059
:100A8000019847F20007C4F200073868C00541D456
:100A9000386840F480703860FFF7C0FD054600BF3D
:100AA0003868C00536D4FFF7B9FD401B0228F7D9D6
:100AB000B5E000BFB06800F00C00082803D17068F2
:100AC00040023FF550AF6068B0F5803F07D0B0F509
:100AD000A02F40F08D80306840F480203060306876
:100AE00040F4803030608DE0E068002852D0002073
:100AF000C4F2472001210160FFF790FD054600BFC9
:100B0000306880073FF54CAFFFF788FD401B022897
:100B1000F6D984E0A068012805D005284ED1306FB1
:100B200040F004003067306F40F0010030674FE064
:100B30000021C0F8801EFFF771FD0546706F800729
:100B40007FF538AFFFF76AFD401B0228F6D966E053
:100B50000027C4F2472700203866FFF75FFD022D0B
:100B600005460BD1306880015ED5FFF757FD401B6D
:100B700002284FF00300F5D954E700BF3068800128
:100B80007FF54FAFFFF74AFD401B02284FF00300EF
:100B9000F4D947E70020C4F2472000210160FFF7A5
:100BA0003DFD0546306880077FF501AFFFF736FD54
:100BB000401B02284FF00300F4D933E7316F0028BF
:100BC00021F001013167316F21F00401316751D00B
:100BD000FFF724FD054641F2883700BF306F8007DC
:100BE0005AD4FFF71BFD401BB842F7D917E000BFEE
:100BF0003168002821F480313160316821F480218E
:100C0000316053D0FFF70AFD054600BF306880030E
:100C10003FF5AFAEFFF702FD401B6428F6D9032075
:100C200002B0BDE8F08100BF04F11C052FCD246B9C
:100C300008430021CFF6FF7140EA821001EBC33177
:100C40006FF30F0140EA0560084340EA04707060EA
:100C500001203866FFF7E2FC044600BF30688001DF
:100C60003FF5DFAEFFF7DAFC001B02284FF0030070
:100C7000F4D9D7E6FFF7D2FC054641F2883700BF2A
:100C8000306F800708D5FFF7C9FC401BB8424FF012
:100C90000300F5D9C6E600BFB8F1000F7FF48DAEB2
:100CA000306C20F08050306487E600BFFFF7B6FC60
:100CB000054600BF306880037FF55BAEFFF7AEFCF2
:100CC000401B64284FF00300F4D9ABE6411E00201E
:100CD000B0EB116F1CBF012070474EF21002CEF234
:100CE000000251604EF62351CEF20001F0230B704A
:100CF0000721906011607047FEE70000FEE70000EA
:100D0000FEE700007047000070470000FFF78CBC52
:100D1000B0B594B0002443F64000CDE90B44CDE9D2
:100D200009440694CDE90444CDE902440194C4F297
:100D300002000168022541F080510160006800F066
:100D400080500190019847F200000194C4F2000025
:100D5000016841F440410160006800F440400190A6
:100D60000198012007904FF4A02008904FF48000D4
:100D70000E9008200F90C820CDE9100507A80D950A
:100D8000CDE91255FFF7DCFD20B1EFF3108072B60C
:100D9000FEE700BF0F20CDE902058020CDE9040465
:100DA00002A801210694FFF7E5FC28B1EFF31080BB
:100DB00072B600BFFEE700BF14B0B0BD4EF688505B
:100DC000CEF20000016841F4700101600021C0F61C
:100DD000020140F8801C7047FEE7000086B041F237
:100DE0000004C4F20204FFF72DFCFFF791FF002579
:100DF00043F6300005950095C4F202000168002218
:100E000041F0100101600168082601F01001009115
:100E100000990095016841F0800101600068082197
:100E200000F08000009000982046FFF7F1FB0120C1
:100E3000CDE9020501A9204601960495FFF70AFBBA
:100E4000204608210122FFF7E3FB4FF47A70FFF7F9
:100E5000EDFA204608210022FFF7DAFB4FF47A7002
:100E6000FFF7E4FAECE7F1EE100A4FF6FF71C0F27B
:100E7000C03120EA010040F04070E1EE100A7047F6
:100E8000000000000000000001020304060708093A
:100E9000B00E02080000002010000000140202083A
:100EA000C00E020810000020680600003002020890
:100EB00001000000100000000024F4000000000009
:04000005080201D913
:00000001FF
